{
	"contracts/KipuBank.sol": {
		"KipuBank": {
			"abi": [
				{
					"inputs": [
						{
							"internalType": "uint256",
							"name": "_bankCap",
							"type": "uint256"
						}
					],
					"stateMutability": "payable",
					"type": "constructor"
				},
				{
					"inputs": [],
					"name": "DepositCapReached",
					"type": "error"
				},
				{
					"inputs": [],
					"name": "InsufficientBalance",
					"type": "error"
				},
				{
					"inputs": [],
					"name": "InvalidDepositAmount",
					"type": "error"
				},
				{
					"inputs": [],
					"name": "InvalidWithdrawAmount",
					"type": "error"
				},
				{
					"inputs": [],
					"name": "WithdrawLimitExceeded",
					"type": "error"
				},
				{
					"anonymous": false,
					"inputs": [
						{
							"indexed": false,
							"internalType": "address",
							"name": "usuario",
							"type": "address"
						},
						{
							"indexed": false,
							"internalType": "uint256",
							"name": "monto",
							"type": "uint256"
						}
					],
					"name": "Deposito",
					"type": "event"
				},
				{
					"anonymous": false,
					"inputs": [
						{
							"indexed": false,
							"internalType": "address",
							"name": "usuario",
							"type": "address"
						},
						{
							"indexed": false,
							"internalType": "uint256",
							"name": "monto",
							"type": "uint256"
						}
					],
					"name": "Retiro",
					"type": "event"
				},
				{
					"inputs": [],
					"name": "LIMITE_RETIRO",
					"outputs": [
						{
							"internalType": "uint256",
							"name": "",
							"type": "uint256"
						}
					],
					"stateMutability": "view",
					"type": "function"
				},
				{
					"inputs": [
						{
							"internalType": "address",
							"name": "usuario",
							"type": "address"
						}
					],
					"name": "balanceOf",
					"outputs": [
						{
							"internalType": "uint256",
							"name": "",
							"type": "uint256"
						}
					],
					"stateMutability": "view",
					"type": "function"
				},
				{
					"inputs": [],
					"name": "bankCap",
					"outputs": [
						{
							"internalType": "uint256",
							"name": "",
							"type": "uint256"
						}
					],
					"stateMutability": "view",
					"type": "function"
				},
				{
					"inputs": [],
					"name": "depositar",
					"outputs": [],
					"stateMutability": "payable",
					"type": "function"
				},
				{
					"inputs": [
						{
							"internalType": "uint256",
							"name": "montoRetiro",
							"type": "uint256"
						}
					],
					"name": "retirar",
					"outputs": [],
					"stateMutability": "nonpayable",
					"type": "function"
				},
				{
					"inputs": [],
					"name": "totalDepositos",
					"outputs": [
						{
							"internalType": "uint256",
							"name": "",
							"type": "uint256"
						}
					],
					"stateMutability": "view",
					"type": "function"
				},
				{
					"inputs": [],
					"name": "totalRetiros",
					"outputs": [
						{
							"internalType": "uint256",
							"name": "",
							"type": "uint256"
						}
					],
					"stateMutability": "view",
					"type": "function"
				}
			],
			"devdoc": {
				"kind": "dev",
				"methods": {
					"balanceOf(address)": {
						"params": {
							"usuario": "Dirección del usuario"
						},
						"returns": {
							"_0": "Balance actual del usuario"
						}
					},
					"constructor": {
						"params": {
							"_bankCap": "Límite global de depósitos"
						}
					},
					"depositar()": {
						"details": "Requiere que el monto sea > 0 y no supere el límite global"
					},
					"retirar(uint256)": {
						"params": {
							"montoRetiro": "Monto a retirar"
						}
					}
				},
				"version": 1
			},
			"evm": {
				"assembly": "    /* \"contracts/KipuBank.sol\":63:3377  contract KipuBank {... */\n  mstore(0x40, 0xa0)\n    /* \"contracts/KipuBank.sol\":1512:1587  constructor(uint256 _bankCap) payable {... */\n  mload(0x40)\n  sub(codesize, bytecodeSize)\n  dup1\n  bytecodeSize\n  dup4\n  codecopy\n  dup2\n  dup2\n  add\n  0x40\n  mstore\n  dup2\n  add\n  swap1\n  tag_1\n  swap2\n  swap1\n  tag_2\n  jump\t// in\ntag_1:\n    /* \"contracts/KipuBank.sol\":1571:1579  _bankCap */\n  dup1\n    /* \"contracts/KipuBank.sol\":1561:1579  bankCap = _bankCap */\n  0x80\n  dup2\n  dup2\n  mstore\n  pop\n  pop\n    /* \"contracts/KipuBank.sol\":1512:1587  constructor(uint256 _bankCap) payable {... */\n  pop\n    /* \"contracts/KipuBank.sol\":63:3377  contract KipuBank {... */\n  jump(tag_5)\n    /* \"#utility.yul\":88:205   */\ntag_7:\n    /* \"#utility.yul\":197:198   */\n  0x00\n    /* \"#utility.yul\":194:195   */\n  0x00\n    /* \"#utility.yul\":187:199   */\n  revert\n    /* \"#utility.yul\":334:411   */\ntag_9:\n    /* \"#utility.yul\":371:378   */\n  0x00\n    /* \"#utility.yul\":400:405   */\n  dup2\n    /* \"#utility.yul\":389:405   */\n  swap1\n  pop\n    /* \"#utility.yul\":334:411   */\n  swap2\n  swap1\n  pop\n  jump\t// out\n    /* \"#utility.yul\":417:539   */\ntag_10:\n    /* \"#utility.yul\":490:514   */\n  tag_18\n    /* \"#utility.yul\":508:513   */\n  dup2\n    /* \"#utility.yul\":490:514   */\n  tag_9\n  jump\t// in\ntag_18:\n    /* \"#utility.yul\":483:488   */\n  dup2\n    /* \"#utility.yul\":480:515   */\n  eq\n    /* \"#utility.yul\":470:533   */\n  tag_19\n  jumpi\n    /* \"#utility.yul\":529:530   */\n  0x00\n    /* \"#utility.yul\":526:527   */\n  0x00\n    /* \"#utility.yul\":519:531   */\n  revert\n    /* \"#utility.yul\":470:533   */\ntag_19:\n    /* \"#utility.yul\":417:539   */\n  pop\n  jump\t// out\n    /* \"#utility.yul\":545:688   */\ntag_11:\n    /* \"#utility.yul\":602:607   */\n  0x00\n    /* \"#utility.yul\":633:639   */\n  dup2\n    /* \"#utility.yul\":627:640   */\n  mload\n    /* \"#utility.yul\":618:640   */\n  swap1\n  pop\n    /* \"#utility.yul\":649:682   */\n  tag_21\n    /* \"#utility.yul\":676:681   */\n  dup2\n    /* \"#utility.yul\":649:682   */\n  tag_10\n  jump\t// in\ntag_21:\n    /* \"#utility.yul\":545:688   */\n  swap3\n  swap2\n  pop\n  pop\n  jump\t// out\n    /* \"#utility.yul\":694:1045   */\ntag_2:\n    /* \"#utility.yul\":764:770   */\n  0x00\n    /* \"#utility.yul\":813:815   */\n  0x20\n    /* \"#utility.yul\":801:810   */\n  dup3\n    /* \"#utility.yul\":792:799   */\n  dup5\n    /* \"#utility.yul\":788:811   */\n  sub\n    /* \"#utility.yul\":784:816   */\n  slt\n    /* \"#utility.yul\":781:900   */\n  iszero\n  tag_23\n  jumpi\n    /* \"#utility.yul\":819:898   */\n  tag_24\n  tag_7\n  jump\t// in\ntag_24:\n    /* \"#utility.yul\":781:900   */\ntag_23:\n    /* \"#utility.yul\":939:940   */\n  0x00\n    /* \"#utility.yul\":964:1028   */\n  tag_25\n    /* \"#utility.yul\":1020:1027   */\n  dup5\n    /* \"#utility.yul\":1011:1017   */\n  dup3\n    /* \"#utility.yul\":1000:1009   */\n  dup6\n    /* \"#utility.yul\":996:1018   */\n  add\n    /* \"#utility.yul\":964:1028   */\n  tag_11\n  jump\t// in\ntag_25:\n    /* \"#utility.yul\":954:1028   */\n  swap2\n  pop\n    /* \"#utility.yul\":910:1038   */\n  pop\n    /* \"#utility.yul\":694:1045   */\n  swap3\n  swap2\n  pop\n  pop\n  jump\t// out\n    /* \"contracts/KipuBank.sol\":63:3377  contract KipuBank {... */\ntag_5:\n  mload(0x80)\n  codecopy(0x00, dataOffset(sub_0), dataSize(sub_0))\n  0x00\n  assignImmutable(\"0x1572b593c53d839d80004aa4b8c51211864104f06ace9e22be9c4365b50655ea\")\n  return(0x00, dataSize(sub_0))\nstop\n\nsub_0: assembly {\n        /* \"contracts/KipuBank.sol\":63:3377  contract KipuBank {... */\n      mstore(0x40, 0x80)\n      jumpi(tag_1, lt(calldatasize, 0x04))\n      shr(0xe0, calldataload(0x00))\n      dup1\n      0x9ed9c26d\n      gt\n      tag_9\n      jumpi\n      dup1\n      0x9ed9c26d\n      eq\n      tag_5\n      jumpi\n      dup1\n      0xa472b2d9\n      eq\n      tag_6\n      jumpi\n      dup1\n      0xe8b1298f\n      eq\n      tag_7\n      jumpi\n      dup1\n      0xecbea24d\n      eq\n      tag_8\n      jumpi\n      jump(tag_1)\n    tag_9:\n      dup1\n      0x2640e736\n      eq\n      tag_2\n      jumpi\n      dup1\n      0x3d922f90\n      eq\n      tag_3\n      jumpi\n      dup1\n      0x70a08231\n      eq\n      tag_4\n      jumpi\n    tag_1:\n      revert(0x00, 0x00)\n        /* \"contracts/KipuBank.sol\":773:821  uint256 public constant LIMITE_RETIRO = 50 ether */\n    tag_2:\n      callvalue\n      dup1\n      iszero\n      tag_10\n      jumpi\n      revert(0x00, 0x00)\n    tag_10:\n      pop\n      tag_11\n      tag_12\n      jump\t// in\n    tag_11:\n      mload(0x40)\n      tag_13\n      swap2\n      swap1\n      tag_14\n      jump\t// in\n    tag_13:\n      mload(0x40)\n      dup1\n      swap2\n      sub\n      swap1\n      return\n        /* \"contracts/KipuBank.sol\":1740:2118  function depositar() external payable {... */\n    tag_3:\n      tag_15\n      tag_16\n      jump\t// in\n    tag_15:\n      stop\n        /* \"contracts/KipuBank.sol\":2882:2993  function balanceOf(address usuario) external view returns (uint256) {... */\n    tag_4:\n      callvalue\n      dup1\n      iszero\n      tag_17\n      jumpi\n      revert(0x00, 0x00)\n    tag_17:\n      pop\n      tag_18\n      0x04\n      dup1\n      calldatasize\n      sub\n      dup2\n      add\n      swap1\n      tag_19\n      swap2\n      swap1\n      tag_20\n      jump\t// in\n    tag_19:\n      tag_21\n      jump\t// in\n    tag_18:\n      mload(0x40)\n      tag_22\n      swap2\n      swap1\n      tag_14\n      jump\t// in\n    tag_22:\n      mload(0x40)\n      dup1\n      swap2\n      sub\n      swap1\n      return\n        /* \"contracts/KipuBank.sol\":1060:1087  uint256 public totalRetiros */\n    tag_5:\n      callvalue\n      dup1\n      iszero\n      tag_23\n      jumpi\n      revert(0x00, 0x00)\n    tag_23:\n      pop\n      tag_24\n      tag_25\n      jump\t// in\n    tag_24:\n      mload(0x40)\n      tag_26\n      swap2\n      swap1\n      tag_14\n      jump\t// in\n    tag_26:\n      mload(0x40)\n      dup1\n      swap2\n      sub\n      swap1\n      return\n        /* \"contracts/KipuBank.sol\":976:1005  uint256 public totalDepositos */\n    tag_6:\n      callvalue\n      dup1\n      iszero\n      tag_27\n      jumpi\n      revert(0x00, 0x00)\n    tag_27:\n      pop\n      tag_28\n      tag_29\n      jump\t// in\n    tag_28:\n      mload(0x40)\n      tag_30\n      swap2\n      swap1\n      tag_14\n      jump\t// in\n    tag_30:\n      mload(0x40)\n      dup1\n      swap2\n      sub\n      swap1\n      return\n        /* \"contracts/KipuBank.sol\":2234:2732  function retirar(uint256 montoRetiro) external {... */\n    tag_7:\n      callvalue\n      dup1\n      iszero\n      tag_31\n      jumpi\n      revert(0x00, 0x00)\n    tag_31:\n      pop\n      tag_32\n      0x04\n      dup1\n      calldatasize\n      sub\n      dup2\n      add\n      swap1\n      tag_33\n      swap2\n      swap1\n      tag_34\n      jump\t// in\n    tag_33:\n      tag_35\n      jump\t// in\n    tag_32:\n      stop\n        /* \"contracts/KipuBank.sol\":886:918  uint256 public immutable bankCap */\n    tag_8:\n      callvalue\n      dup1\n      iszero\n      tag_36\n      jumpi\n      revert(0x00, 0x00)\n    tag_36:\n      pop\n      tag_37\n      tag_38\n      jump\t// in\n    tag_37:\n      mload(0x40)\n      tag_39\n      swap2\n      swap1\n      tag_14\n      jump\t// in\n    tag_39:\n      mload(0x40)\n      dup1\n      swap2\n      sub\n      swap1\n      return\n        /* \"contracts/KipuBank.sol\":773:821  uint256 public constant LIMITE_RETIRO = 50 ether */\n    tag_12:\n        /* \"contracts/KipuBank.sol\":813:821  50 ether */\n      0x02b5e3af16b1880000\n        /* \"contracts/KipuBank.sol\":773:821  uint256 public constant LIMITE_RETIRO = 50 ether */\n      dup2\n      jump\t// out\n        /* \"contracts/KipuBank.sol\":1740:2118  function depositar() external payable {... */\n    tag_16:\n        /* \"contracts/KipuBank.sol\":1806:1807  0 */\n      0x00\n        /* \"contracts/KipuBank.sol\":1793:1802  msg.value */\n      callvalue\n        /* \"contracts/KipuBank.sol\":1793:1807  msg.value == 0 */\n      sub\n        /* \"contracts/KipuBank.sol\":1789:1838  if (msg.value == 0) revert InvalidDepositAmount() */\n      tag_41\n      jumpi\n        /* \"contracts/KipuBank.sol\":1816:1838  InvalidDepositAmount() */\n      mload(0x40)\n      0xfe9ba5cd00000000000000000000000000000000000000000000000000000000\n      dup2\n      mstore\n      0x04\n      add\n      mload(0x40)\n      dup1\n      swap2\n      sub\n      swap1\n      revert\n        /* \"contracts/KipuBank.sol\":1789:1838  if (msg.value == 0) revert InvalidDepositAmount() */\n    tag_41:\n        /* \"contracts/KipuBank.sol\":1877:1884  bankCap */\n      immutable(\"0x1572b593c53d839d80004aa4b8c51211864104f06ace9e22be9c4365b50655ea\")\n        /* \"contracts/KipuBank.sol\":1853:1874  address(this).balance */\n      selfbalance\n        /* \"contracts/KipuBank.sol\":1853:1884  address(this).balance > bankCap */\n      gt\n        /* \"contracts/KipuBank.sol\":1849:1912  if (address(this).balance > bankCap) revert DepositCapReached() */\n      iszero\n      tag_42\n      jumpi\n        /* \"contracts/KipuBank.sol\":1893:1912  DepositCapReached() */\n      mload(0x40)\n      0x4b9f2b5400000000000000000000000000000000000000000000000000000000\n      dup2\n      mstore\n      0x04\n      add\n      mload(0x40)\n      dup1\n      swap2\n      sub\n      swap1\n      revert\n        /* \"contracts/KipuBank.sol\":1849:1912  if (address(this).balance > bankCap) revert DepositCapReached() */\n    tag_42:\n        /* \"contracts/KipuBank.sol\":1969:1978  msg.value */\n      callvalue\n        /* \"contracts/KipuBank.sol\":1945:1953  balances */\n      0x02\n        /* \"contracts/KipuBank.sol\":1945:1965  balances[msg.sender] */\n      0x00\n        /* \"contracts/KipuBank.sol\":1954:1964  msg.sender */\n      caller\n        /* \"contracts/KipuBank.sol\":1945:1965  balances[msg.sender] */\n      0xffffffffffffffffffffffffffffffffffffffff\n      and\n      0xffffffffffffffffffffffffffffffffffffffff\n      and\n      dup2\n      mstore\n      0x20\n      add\n      swap1\n      dup2\n      mstore\n      0x20\n      add\n      0x00\n      keccak256\n      0x00\n        /* \"contracts/KipuBank.sol\":1945:1978  balances[msg.sender] += msg.value */\n      dup3\n      dup3\n      sload\n      tag_43\n      swap2\n      swap1\n      tag_44\n      jump\t// in\n    tag_43:\n      swap3\n      pop\n      pop\n      dup2\n      swap1\n      sstore\n      pop\n        /* \"contracts/KipuBank.sol\":1989:2003  totalDepositos */\n      0x00\n      0x00\n        /* \"contracts/KipuBank.sol\":1989:2005  totalDepositos++ */\n      dup2\n      sload\n      dup1\n      swap3\n      swap2\n      swap1\n      tag_45\n      swap1\n      tag_46\n      jump\t// in\n    tag_45:\n      swap2\n      swap1\n      pop\n      sstore\n      pop\n        /* \"contracts/KipuBank.sol\":2079:2110  Deposito(msg.sender, msg.value) */\n      0x453529dac6ef979a41d67fbeeabdfae29903c185f64d77aa690df9eca5f1aa60\n        /* \"contracts/KipuBank.sol\":2088:2098  msg.sender */\n      caller\n        /* \"contracts/KipuBank.sol\":2100:2109  msg.value */\n      callvalue\n        /* \"contracts/KipuBank.sol\":2079:2110  Deposito(msg.sender, msg.value) */\n      mload(0x40)\n      tag_47\n      swap3\n      swap2\n      swap1\n      tag_48\n      jump\t// in\n    tag_47:\n      mload(0x40)\n      dup1\n      swap2\n      sub\n      swap1\n      log1\n        /* \"contracts/KipuBank.sol\":1740:2118  function depositar() external payable {... */\n      jump\t// out\n        /* \"contracts/KipuBank.sol\":2882:2993  function balanceOf(address usuario) external view returns (uint256) {... */\n    tag_21:\n        /* \"contracts/KipuBank.sol\":2941:2948  uint256 */\n      0x00\n        /* \"contracts/KipuBank.sol\":2968:2976  balances */\n      0x02\n        /* \"contracts/KipuBank.sol\":2968:2985  balances[usuario] */\n      0x00\n        /* \"contracts/KipuBank.sol\":2977:2984  usuario */\n      dup4\n        /* \"contracts/KipuBank.sol\":2968:2985  balances[usuario] */\n      0xffffffffffffffffffffffffffffffffffffffff\n      and\n      0xffffffffffffffffffffffffffffffffffffffff\n      and\n      dup2\n      mstore\n      0x20\n      add\n      swap1\n      dup2\n      mstore\n      0x20\n      add\n      0x00\n      keccak256\n      sload\n        /* \"contracts/KipuBank.sol\":2961:2985  return balances[usuario] */\n      swap1\n      pop\n        /* \"contracts/KipuBank.sol\":2882:2993  function balanceOf(address usuario) external view returns (uint256) {... */\n      swap2\n      swap1\n      pop\n      jump\t// out\n        /* \"contracts/KipuBank.sol\":1060:1087  uint256 public totalRetiros */\n    tag_25:\n      sload(0x01)\n      dup2\n      jump\t// out\n        /* \"contracts/KipuBank.sol\":976:1005  uint256 public totalDepositos */\n    tag_29:\n      sload(0x00)\n      dup2\n      jump\t// out\n        /* \"contracts/KipuBank.sol\":2234:2732  function retirar(uint256 montoRetiro) external {... */\n    tag_35:\n        /* \"contracts/KipuBank.sol\":2311:2312  0 */\n      0x00\n        /* \"contracts/KipuBank.sol\":2296:2307  montoRetiro */\n      dup2\n        /* \"contracts/KipuBank.sol\":2296:2312  montoRetiro == 0 */\n      sub\n        /* \"contracts/KipuBank.sol\":2292:2344  if (montoRetiro == 0) revert InvalidWithdrawAmount() */\n      tag_51\n      jumpi\n        /* \"contracts/KipuBank.sol\":2321:2344  InvalidWithdrawAmount() */\n      mload(0x40)\n      0xdb73cdf000000000000000000000000000000000000000000000000000000000\n      dup2\n      mstore\n      0x04\n      add\n      mload(0x40)\n      dup1\n      swap2\n      sub\n      swap1\n      revert\n        /* \"contracts/KipuBank.sol\":2292:2344  if (montoRetiro == 0) revert InvalidWithdrawAmount() */\n    tag_51:\n        /* \"contracts/KipuBank.sol\":813:821  50 ether */\n      0x02b5e3af16b1880000\n        /* \"contracts/KipuBank.sol\":2359:2370  montoRetiro */\n      dup2\n        /* \"contracts/KipuBank.sol\":2359:2386  montoRetiro > LIMITE_RETIRO */\n      gt\n        /* \"contracts/KipuBank.sol\":2355:2418  if (montoRetiro > LIMITE_RETIRO) revert WithdrawLimitExceeded() */\n      iszero\n      tag_52\n      jumpi\n        /* \"contracts/KipuBank.sol\":2395:2418  WithdrawLimitExceeded() */\n      mload(0x40)\n      0x14f310c900000000000000000000000000000000000000000000000000000000\n      dup2\n      mstore\n      0x04\n      add\n      mload(0x40)\n      dup1\n      swap2\n      sub\n      swap1\n      revert\n        /* \"contracts/KipuBank.sol\":2355:2418  if (montoRetiro > LIMITE_RETIRO) revert WithdrawLimitExceeded() */\n    tag_52:\n        /* \"contracts/KipuBank.sol\":2456:2467  montoRetiro */\n      dup1\n        /* \"contracts/KipuBank.sol\":2433:2441  balances */\n      0x02\n        /* \"contracts/KipuBank.sol\":2433:2453  balances[msg.sender] */\n      0x00\n        /* \"contracts/KipuBank.sol\":2442:2452  msg.sender */\n      caller\n        /* \"contracts/KipuBank.sol\":2433:2453  balances[msg.sender] */\n      0xffffffffffffffffffffffffffffffffffffffff\n      and\n      0xffffffffffffffffffffffffffffffffffffffff\n      and\n      dup2\n      mstore\n      0x20\n      add\n      swap1\n      dup2\n      mstore\n      0x20\n      add\n      0x00\n      keccak256\n      sload\n        /* \"contracts/KipuBank.sol\":2433:2467  balances[msg.sender] < montoRetiro */\n      lt\n        /* \"contracts/KipuBank.sol\":2429:2497  if (balances[msg.sender] < montoRetiro) revert InsufficientBalance() */\n      iszero\n      tag_53\n      jumpi\n        /* \"contracts/KipuBank.sol\":2476:2497  InsufficientBalance() */\n      mload(0x40)\n      0xf4d678b800000000000000000000000000000000000000000000000000000000\n      dup2\n      mstore\n      0x04\n      add\n      mload(0x40)\n      dup1\n      swap2\n      sub\n      swap1\n      revert\n        /* \"contracts/KipuBank.sol\":2429:2497  if (balances[msg.sender] < montoRetiro) revert InsufficientBalance() */\n    tag_53:\n        /* \"contracts/KipuBank.sol\":2554:2565  montoRetiro */\n      dup1\n        /* \"contracts/KipuBank.sol\":2530:2538  balances */\n      0x02\n        /* \"contracts/KipuBank.sol\":2530:2550  balances[msg.sender] */\n      0x00\n        /* \"contracts/KipuBank.sol\":2539:2549  msg.sender */\n      caller\n        /* \"contracts/KipuBank.sol\":2530:2550  balances[msg.sender] */\n      0xffffffffffffffffffffffffffffffffffffffff\n      and\n      0xffffffffffffffffffffffffffffffffffffffff\n      and\n      dup2\n      mstore\n      0x20\n      add\n      swap1\n      dup2\n      mstore\n      0x20\n      add\n      0x00\n      keccak256\n      0x00\n        /* \"contracts/KipuBank.sol\":2530:2565  balances[msg.sender] -= montoRetiro */\n      dup3\n      dup3\n      sload\n      tag_54\n      swap2\n      swap1\n      tag_55\n      jump\t// in\n    tag_54:\n      swap3\n      pop\n      pop\n      dup2\n      swap1\n      sstore\n      pop\n        /* \"contracts/KipuBank.sol\":2576:2588  totalRetiros */\n      0x01\n      0x00\n        /* \"contracts/KipuBank.sol\":2576:2590  totalRetiros++ */\n      dup2\n      sload\n      dup1\n      swap3\n      swap2\n      swap1\n      tag_56\n      swap1\n      tag_46\n      jump\t// in\n    tag_56:\n      swap2\n      swap1\n      pop\n      sstore\n      pop\n        /* \"contracts/KipuBank.sol\":2628:2675  _safeTransfer(payable(msg.sender), montoRetiro) */\n      tag_57\n        /* \"contracts/KipuBank.sol\":2650:2660  msg.sender */\n      caller\n        /* \"contracts/KipuBank.sol\":2663:2674  montoRetiro */\n      dup3\n        /* \"contracts/KipuBank.sol\":2628:2641  _safeTransfer */\n      tag_58\n        /* \"contracts/KipuBank.sol\":2628:2675  _safeTransfer(payable(msg.sender), montoRetiro) */\n      jump\t// in\n    tag_57:\n        /* \"contracts/KipuBank.sol\":2693:2724  Retiro(msg.sender, montoRetiro) */\n      0xebdddb82f24ed849145a8f144818f7d383a31047a4a7f30b928c65100f9b8eab\n        /* \"contracts/KipuBank.sol\":2700:2710  msg.sender */\n      caller\n        /* \"contracts/KipuBank.sol\":2712:2723  montoRetiro */\n      dup3\n        /* \"contracts/KipuBank.sol\":2693:2724  Retiro(msg.sender, montoRetiro) */\n      mload(0x40)\n      tag_59\n      swap3\n      swap2\n      swap1\n      tag_48\n      jump\t// in\n    tag_59:\n      mload(0x40)\n      dup1\n      swap2\n      sub\n      swap1\n      log1\n        /* \"contracts/KipuBank.sol\":2234:2732  function retirar(uint256 montoRetiro) external {... */\n      pop\n      jump\t// out\n        /* \"contracts/KipuBank.sol\":886:918  uint256 public immutable bankCap */\n    tag_38:\n      immutable(\"0x1572b593c53d839d80004aa4b8c51211864104f06ace9e22be9c4365b50655ea\")\n      dup2\n      jump\t// out\n        /* \"contracts/KipuBank.sol\":3179:3374  function _safeTransfer(address payable destinatario, uint256 monto) private {... */\n    tag_58:\n        /* \"contracts/KipuBank.sol\":3267:3279  bool success */\n      0x00\n        /* \"contracts/KipuBank.sol\":3285:3297  destinatario */\n      dup3\n        /* \"contracts/KipuBank.sol\":3285:3302  destinatario.call */\n      0xffffffffffffffffffffffffffffffffffffffff\n      and\n        /* \"contracts/KipuBank.sol\":3310:3315  monto */\n      dup3\n        /* \"contracts/KipuBank.sol\":3285:3320  destinatario.call{value: monto}(\"\") */\n      mload(0x40)\n      tag_61\n      swap1\n      tag_62\n      jump\t// in\n    tag_61:\n      0x00\n      mload(0x40)\n      dup1\n      dup4\n      sub\n      dup2\n      dup6\n      dup8\n      gas\n      call\n      swap3\n      pop\n      pop\n      pop\n      returndatasize\n      dup1\n      0x00\n      dup2\n      eq\n      tag_65\n      jumpi\n      mload(0x40)\n      swap2\n      pop\n      and(add(returndatasize, 0x3f), not(0x1f))\n      dup3\n      add\n      0x40\n      mstore\n      returndatasize\n      dup3\n      mstore\n      returndatasize\n      0x00\n      0x20\n      dup5\n      add\n      returndatacopy\n      jump(tag_64)\n    tag_65:\n      0x60\n      swap2\n      pop\n    tag_64:\n      pop\n        /* \"contracts/KipuBank.sol\":3266:3320  (bool success, ) = destinatario.call{value: monto}(\"\") */\n      pop\n      swap1\n      pop\n        /* \"contracts/KipuBank.sol\":3339:3346  success */\n      dup1\n        /* \"contracts/KipuBank.sol\":3331:3366  require(success, \"Transfer failed\") */\n      tag_66\n      jumpi\n      mload(0x40)\n      0x08c379a000000000000000000000000000000000000000000000000000000000\n      dup2\n      mstore\n      0x04\n      add\n      tag_67\n      swap1\n      tag_68\n      jump\t// in\n    tag_67:\n      mload(0x40)\n      dup1\n      swap2\n      sub\n      swap1\n      revert\n    tag_66:\n        /* \"contracts/KipuBank.sol\":3255:3374  {... */\n      pop\n        /* \"contracts/KipuBank.sol\":3179:3374  function _safeTransfer(address payable destinatario, uint256 monto) private {... */\n      pop\n      pop\n      jump\t// out\n        /* \"#utility.yul\":7:84   */\n    tag_69:\n        /* \"#utility.yul\":44:51   */\n      0x00\n        /* \"#utility.yul\":73:78   */\n      dup2\n        /* \"#utility.yul\":62:78   */\n      swap1\n      pop\n        /* \"#utility.yul\":7:84   */\n      swap2\n      swap1\n      pop\n      jump\t// out\n        /* \"#utility.yul\":90:208   */\n    tag_70:\n        /* \"#utility.yul\":177:201   */\n      tag_91\n        /* \"#utility.yul\":195:200   */\n      dup2\n        /* \"#utility.yul\":177:201   */\n      tag_69\n      jump\t// in\n    tag_91:\n        /* \"#utility.yul\":172:175   */\n      dup3\n        /* \"#utility.yul\":165:202   */\n      mstore\n        /* \"#utility.yul\":90:208   */\n      pop\n      pop\n      jump\t// out\n        /* \"#utility.yul\":214:436   */\n    tag_14:\n        /* \"#utility.yul\":307:311   */\n      0x00\n        /* \"#utility.yul\":345:347   */\n      0x20\n        /* \"#utility.yul\":334:343   */\n      dup3\n        /* \"#utility.yul\":330:348   */\n      add\n        /* \"#utility.yul\":322:348   */\n      swap1\n      pop\n        /* \"#utility.yul\":358:429   */\n      tag_93\n        /* \"#utility.yul\":426:427   */\n      0x00\n        /* \"#utility.yul\":415:424   */\n      dup4\n        /* \"#utility.yul\":411:428   */\n      add\n        /* \"#utility.yul\":402:408   */\n      dup5\n        /* \"#utility.yul\":358:429   */\n      tag_70\n      jump\t// in\n    tag_93:\n        /* \"#utility.yul\":214:436   */\n      swap3\n      swap2\n      pop\n      pop\n      jump\t// out\n        /* \"#utility.yul\":523:640   */\n    tag_72:\n        /* \"#utility.yul\":632:633   */\n      0x00\n        /* \"#utility.yul\":629:630   */\n      0x00\n        /* \"#utility.yul\":622:634   */\n      revert\n        /* \"#utility.yul\":769:895   */\n    tag_74:\n        /* \"#utility.yul\":806:813   */\n      0x00\n        /* \"#utility.yul\":846:888   */\n      0xffffffffffffffffffffffffffffffffffffffff\n        /* \"#utility.yul\":839:844   */\n      dup3\n        /* \"#utility.yul\":835:889   */\n      and\n        /* \"#utility.yul\":824:889   */\n      swap1\n      pop\n        /* \"#utility.yul\":769:895   */\n      swap2\n      swap1\n      pop\n      jump\t// out\n        /* \"#utility.yul\":901:997   */\n    tag_75:\n        /* \"#utility.yul\":938:945   */\n      0x00\n        /* \"#utility.yul\":967:991   */\n      tag_99\n        /* \"#utility.yul\":985:990   */\n      dup3\n        /* \"#utility.yul\":967:991   */\n      tag_74\n      jump\t// in\n    tag_99:\n        /* \"#utility.yul\":956:991   */\n      swap1\n      pop\n        /* \"#utility.yul\":901:997   */\n      swap2\n      swap1\n      pop\n      jump\t// out\n        /* \"#utility.yul\":1003:1125   */\n    tag_76:\n        /* \"#utility.yul\":1076:1100   */\n      tag_101\n        /* \"#utility.yul\":1094:1099   */\n      dup2\n        /* \"#utility.yul\":1076:1100   */\n      tag_75\n      jump\t// in\n    tag_101:\n        /* \"#utility.yul\":1069:1074   */\n      dup2\n        /* \"#utility.yul\":1066:1101   */\n      eq\n        /* \"#utility.yul\":1056:1119   */\n      tag_102\n      jumpi\n        /* \"#utility.yul\":1115:1116   */\n      0x00\n        /* \"#utility.yul\":1112:1113   */\n      0x00\n        /* \"#utility.yul\":1105:1117   */\n      revert\n        /* \"#utility.yul\":1056:1119   */\n    tag_102:\n        /* \"#utility.yul\":1003:1125   */\n      pop\n      jump\t// out\n        /* \"#utility.yul\":1131:1270   */\n    tag_77:\n        /* \"#utility.yul\":1177:1182   */\n      0x00\n        /* \"#utility.yul\":1215:1221   */\n      dup2\n        /* \"#utility.yul\":1202:1222   */\n      calldataload\n        /* \"#utility.yul\":1193:1222   */\n      swap1\n      pop\n        /* \"#utility.yul\":1231:1264   */\n      tag_104\n        /* \"#utility.yul\":1258:1263   */\n      dup2\n        /* \"#utility.yul\":1231:1264   */\n      tag_76\n      jump\t// in\n    tag_104:\n        /* \"#utility.yul\":1131:1270   */\n      swap3\n      swap2\n      pop\n      pop\n      jump\t// out\n        /* \"#utility.yul\":1276:1605   */\n    tag_20:\n        /* \"#utility.yul\":1335:1341   */\n      0x00\n        /* \"#utility.yul\":1384:1386   */\n      0x20\n        /* \"#utility.yul\":1372:1381   */\n      dup3\n        /* \"#utility.yul\":1363:1370   */\n      dup5\n        /* \"#utility.yul\":1359:1382   */\n      sub\n        /* \"#utility.yul\":1355:1387   */\n      slt\n        /* \"#utility.yul\":1352:1471   */\n      iszero\n      tag_106\n      jumpi\n        /* \"#utility.yul\":1390:1469   */\n      tag_107\n      tag_72\n      jump\t// in\n    tag_107:\n        /* \"#utility.yul\":1352:1471   */\n    tag_106:\n        /* \"#utility.yul\":1510:1511   */\n      0x00\n        /* \"#utility.yul\":1535:1588   */\n      tag_108\n        /* \"#utility.yul\":1580:1587   */\n      dup5\n        /* \"#utility.yul\":1571:1577   */\n      dup3\n        /* \"#utility.yul\":1560:1569   */\n      dup6\n        /* \"#utility.yul\":1556:1578   */\n      add\n        /* \"#utility.yul\":1535:1588   */\n      tag_77\n      jump\t// in\n    tag_108:\n        /* \"#utility.yul\":1525:1588   */\n      swap2\n      pop\n        /* \"#utility.yul\":1481:1598   */\n      pop\n        /* \"#utility.yul\":1276:1605   */\n      swap3\n      swap2\n      pop\n      pop\n      jump\t// out\n        /* \"#utility.yul\":1611:1733   */\n    tag_78:\n        /* \"#utility.yul\":1684:1708   */\n      tag_110\n        /* \"#utility.yul\":1702:1707   */\n      dup2\n        /* \"#utility.yul\":1684:1708   */\n      tag_69\n      jump\t// in\n    tag_110:\n        /* \"#utility.yul\":1677:1682   */\n      dup2\n        /* \"#utility.yul\":1674:1709   */\n      eq\n        /* \"#utility.yul\":1664:1727   */\n      tag_111\n      jumpi\n        /* \"#utility.yul\":1723:1724   */\n      0x00\n        /* \"#utility.yul\":1720:1721   */\n      0x00\n        /* \"#utility.yul\":1713:1725   */\n      revert\n        /* \"#utility.yul\":1664:1727   */\n    tag_111:\n        /* \"#utility.yul\":1611:1733   */\n      pop\n      jump\t// out\n        /* \"#utility.yul\":1739:1878   */\n    tag_79:\n        /* \"#utility.yul\":1785:1790   */\n      0x00\n        /* \"#utility.yul\":1823:1829   */\n      dup2\n        /* \"#utility.yul\":1810:1830   */\n      calldataload\n        /* \"#utility.yul\":1801:1830   */\n      swap1\n      pop\n        /* \"#utility.yul\":1839:1872   */\n      tag_113\n        /* \"#utility.yul\":1866:1871   */\n      dup2\n        /* \"#utility.yul\":1839:1872   */\n      tag_78\n      jump\t// in\n    tag_113:\n        /* \"#utility.yul\":1739:1878   */\n      swap3\n      swap2\n      pop\n      pop\n      jump\t// out\n        /* \"#utility.yul\":1884:2213   */\n    tag_34:\n        /* \"#utility.yul\":1943:1949   */\n      0x00\n        /* \"#utility.yul\":1992:1994   */\n      0x20\n        /* \"#utility.yul\":1980:1989   */\n      dup3\n        /* \"#utility.yul\":1971:1978   */\n      dup5\n        /* \"#utility.yul\":1967:1990   */\n      sub\n        /* \"#utility.yul\":1963:1995   */\n      slt\n        /* \"#utility.yul\":1960:2079   */\n      iszero\n      tag_115\n      jumpi\n        /* \"#utility.yul\":1998:2077   */\n      tag_116\n      tag_72\n      jump\t// in\n    tag_116:\n        /* \"#utility.yul\":1960:2079   */\n    tag_115:\n        /* \"#utility.yul\":2118:2119   */\n      0x00\n        /* \"#utility.yul\":2143:2196   */\n      tag_117\n        /* \"#utility.yul\":2188:2195   */\n      dup5\n        /* \"#utility.yul\":2179:2185   */\n      dup3\n        /* \"#utility.yul\":2168:2177   */\n      dup6\n        /* \"#utility.yul\":2164:2186   */\n      add\n        /* \"#utility.yul\":2143:2196   */\n      tag_79\n      jump\t// in\n    tag_117:\n        /* \"#utility.yul\":2133:2196   */\n      swap2\n      pop\n        /* \"#utility.yul\":2089:2206   */\n      pop\n        /* \"#utility.yul\":1884:2213   */\n      swap3\n      swap2\n      pop\n      pop\n      jump\t// out\n        /* \"#utility.yul\":2219:2399   */\n    tag_80:\n        /* \"#utility.yul\":2267:2344   */\n      0x4e487b7100000000000000000000000000000000000000000000000000000000\n        /* \"#utility.yul\":2264:2265   */\n      0x00\n        /* \"#utility.yul\":2257:2345   */\n      mstore\n        /* \"#utility.yul\":2364:2368   */\n      0x11\n        /* \"#utility.yul\":2361:2362   */\n      0x04\n        /* \"#utility.yul\":2354:2369   */\n      mstore\n        /* \"#utility.yul\":2388:2392   */\n      0x24\n        /* \"#utility.yul\":2385:2386   */\n      0x00\n        /* \"#utility.yul\":2378:2393   */\n      revert\n        /* \"#utility.yul\":2405:2596   */\n    tag_44:\n        /* \"#utility.yul\":2445:2448   */\n      0x00\n        /* \"#utility.yul\":2464:2484   */\n      tag_120\n        /* \"#utility.yul\":2482:2483   */\n      dup3\n        /* \"#utility.yul\":2464:2484   */\n      tag_69\n      jump\t// in\n    tag_120:\n        /* \"#utility.yul\":2459:2484   */\n      swap2\n      pop\n        /* \"#utility.yul\":2498:2518   */\n      tag_121\n        /* \"#utility.yul\":2516:2517   */\n      dup4\n        /* \"#utility.yul\":2498:2518   */\n      tag_69\n      jump\t// in\n    tag_121:\n        /* \"#utility.yul\":2493:2518   */\n      swap3\n      pop\n        /* \"#utility.yul\":2541:2542   */\n      dup3\n        /* \"#utility.yul\":2538:2539   */\n      dup3\n        /* \"#utility.yul\":2534:2543   */\n      add\n        /* \"#utility.yul\":2527:2543   */\n      swap1\n      pop\n        /* \"#utility.yul\":2562:2565   */\n      dup1\n        /* \"#utility.yul\":2559:2560   */\n      dup3\n        /* \"#utility.yul\":2556:2566   */\n      gt\n        /* \"#utility.yul\":2553:2589   */\n      iszero\n      tag_122\n      jumpi\n        /* \"#utility.yul\":2569:2587   */\n      tag_123\n      tag_80\n      jump\t// in\n    tag_123:\n        /* \"#utility.yul\":2553:2589   */\n    tag_122:\n        /* \"#utility.yul\":2405:2596   */\n      swap3\n      swap2\n      pop\n      pop\n      jump\t// out\n        /* \"#utility.yul\":2602:2835   */\n    tag_46:\n        /* \"#utility.yul\":2641:2644   */\n      0x00\n        /* \"#utility.yul\":2664:2688   */\n      tag_125\n        /* \"#utility.yul\":2682:2687   */\n      dup3\n        /* \"#utility.yul\":2664:2688   */\n      tag_69\n      jump\t// in\n    tag_125:\n        /* \"#utility.yul\":2655:2688   */\n      swap2\n      pop\n        /* \"#utility.yul\":2710:2776   */\n      0xffffffffffffffffffffffffffffffffffffffffffffffffffffffffffffffff\n        /* \"#utility.yul\":2703:2708   */\n      dup3\n        /* \"#utility.yul\":2700:2777   */\n      sub\n        /* \"#utility.yul\":2697:2800   */\n      tag_126\n      jumpi\n        /* \"#utility.yul\":2780:2798   */\n      tag_127\n      tag_80\n      jump\t// in\n    tag_127:\n        /* \"#utility.yul\":2697:2800   */\n    tag_126:\n        /* \"#utility.yul\":2827:2828   */\n      0x01\n        /* \"#utility.yul\":2820:2825   */\n      dup3\n        /* \"#utility.yul\":2816:2829   */\n      add\n        /* \"#utility.yul\":2809:2829   */\n      swap1\n      pop\n        /* \"#utility.yul\":2602:2835   */\n      swap2\n      swap1\n      pop\n      jump\t// out\n        /* \"#utility.yul\":2841:2959   */\n    tag_81:\n        /* \"#utility.yul\":2928:2952   */\n      tag_129\n        /* \"#utility.yul\":2946:2951   */\n      dup2\n        /* \"#utility.yul\":2928:2952   */\n      tag_75\n      jump\t// in\n    tag_129:\n        /* \"#utility.yul\":2923:2926   */\n      dup3\n        /* \"#utility.yul\":2916:2953   */\n      mstore\n        /* \"#utility.yul\":2841:2959   */\n      pop\n      pop\n      jump\t// out\n        /* \"#utility.yul\":2965:3297   */\n    tag_48:\n        /* \"#utility.yul\":3086:3090   */\n      0x00\n        /* \"#utility.yul\":3124:3126   */\n      0x40\n        /* \"#utility.yul\":3113:3122   */\n      dup3\n        /* \"#utility.yul\":3109:3127   */\n      add\n        /* \"#utility.yul\":3101:3127   */\n      swap1\n      pop\n        /* \"#utility.yul\":3137:3208   */\n      tag_131\n        /* \"#utility.yul\":3205:3206   */\n      0x00\n        /* \"#utility.yul\":3194:3203   */\n      dup4\n        /* \"#utility.yul\":3190:3207   */\n      add\n        /* \"#utility.yul\":3181:3187   */\n      dup6\n        /* \"#utility.yul\":3137:3208   */\n      tag_81\n      jump\t// in\n    tag_131:\n        /* \"#utility.yul\":3218:3290   */\n      tag_132\n        /* \"#utility.yul\":3286:3288   */\n      0x20\n        /* \"#utility.yul\":3275:3284   */\n      dup4\n        /* \"#utility.yul\":3271:3289   */\n      add\n        /* \"#utility.yul\":3262:3268   */\n      dup5\n        /* \"#utility.yul\":3218:3290   */\n      tag_70\n      jump\t// in\n    tag_132:\n        /* \"#utility.yul\":2965:3297   */\n      swap4\n      swap3\n      pop\n      pop\n      pop\n      jump\t// out\n        /* \"#utility.yul\":3303:3497   */\n    tag_55:\n        /* \"#utility.yul\":3343:3347   */\n      0x00\n        /* \"#utility.yul\":3363:3383   */\n      tag_134\n        /* \"#utility.yul\":3381:3382   */\n      dup3\n        /* \"#utility.yul\":3363:3383   */\n      tag_69\n      jump\t// in\n    tag_134:\n        /* \"#utility.yul\":3358:3383   */\n      swap2\n      pop\n        /* \"#utility.yul\":3397:3417   */\n      tag_135\n        /* \"#utility.yul\":3415:3416   */\n      dup4\n        /* \"#utility.yul\":3397:3417   */\n      tag_69\n      jump\t// in\n    tag_135:\n        /* \"#utility.yul\":3392:3417   */\n      swap3\n      pop\n        /* \"#utility.yul\":3441:3442   */\n      dup3\n        /* \"#utility.yul\":3438:3439   */\n      dup3\n        /* \"#utility.yul\":3434:3443   */\n      sub\n        /* \"#utility.yul\":3426:3443   */\n      swap1\n      pop\n        /* \"#utility.yul\":3465:3466   */\n      dup2\n        /* \"#utility.yul\":3459:3463   */\n      dup2\n        /* \"#utility.yul\":3456:3467   */\n      gt\n        /* \"#utility.yul\":3453:3490   */\n      iszero\n      tag_136\n      jumpi\n        /* \"#utility.yul\":3470:3488   */\n      tag_137\n      tag_80\n      jump\t// in\n    tag_137:\n        /* \"#utility.yul\":3453:3490   */\n    tag_136:\n        /* \"#utility.yul\":3303:3497   */\n      swap3\n      swap2\n      pop\n      pop\n      jump\t// out\n        /* \"#utility.yul\":3503:3650   */\n    tag_82:\n        /* \"#utility.yul\":3604:3615   */\n      0x00\n        /* \"#utility.yul\":3641:3644   */\n      dup2\n        /* \"#utility.yul\":3626:3644   */\n      swap1\n      pop\n        /* \"#utility.yul\":3503:3650   */\n      swap3\n      swap2\n      pop\n      pop\n      jump\t// out\n        /* \"#utility.yul\":3656:3770   */\n    tag_83:\n      pop\n      jump\t// out\n        /* \"#utility.yul\":3776:4174   */\n    tag_84:\n        /* \"#utility.yul\":3935:3938   */\n      0x00\n        /* \"#utility.yul\":3956:4039   */\n      tag_141\n        /* \"#utility.yul\":4037:4038   */\n      0x00\n        /* \"#utility.yul\":4032:4035   */\n      dup4\n        /* \"#utility.yul\":3956:4039   */\n      tag_82\n      jump\t// in\n    tag_141:\n        /* \"#utility.yul\":3949:4039   */\n      swap2\n      pop\n        /* \"#utility.yul\":4048:4141   */\n      tag_142\n        /* \"#utility.yul\":4137:4140   */\n      dup3\n        /* \"#utility.yul\":4048:4141   */\n      tag_83\n      jump\t// in\n    tag_142:\n        /* \"#utility.yul\":4166:4167   */\n      0x00\n        /* \"#utility.yul\":4161:4164   */\n      dup3\n        /* \"#utility.yul\":4157:4168   */\n      add\n        /* \"#utility.yul\":4150:4168   */\n      swap1\n      pop\n        /* \"#utility.yul\":3776:4174   */\n      swap2\n      swap1\n      pop\n      jump\t// out\n        /* \"#utility.yul\":4180:4559   */\n    tag_62:\n        /* \"#utility.yul\":4364:4367   */\n      0x00\n        /* \"#utility.yul\":4386:4533   */\n      tag_144\n        /* \"#utility.yul\":4529:4532   */\n      dup3\n        /* \"#utility.yul\":4386:4533   */\n      tag_84\n      jump\t// in\n    tag_144:\n        /* \"#utility.yul\":4379:4533   */\n      swap2\n      pop\n        /* \"#utility.yul\":4550:4553   */\n      dup2\n        /* \"#utility.yul\":4543:4553   */\n      swap1\n      pop\n        /* \"#utility.yul\":4180:4559   */\n      swap2\n      swap1\n      pop\n      jump\t// out\n        /* \"#utility.yul\":4565:4734   */\n    tag_85:\n        /* \"#utility.yul\":4649:4660   */\n      0x00\n        /* \"#utility.yul\":4683:4689   */\n      dup3\n        /* \"#utility.yul\":4678:4681   */\n      dup3\n        /* \"#utility.yul\":4671:4690   */\n      mstore\n        /* \"#utility.yul\":4723:4727   */\n      0x20\n        /* \"#utility.yul\":4718:4721   */\n      dup3\n        /* \"#utility.yul\":4714:4728   */\n      add\n        /* \"#utility.yul\":4699:4728   */\n      swap1\n      pop\n        /* \"#utility.yul\":4565:4734   */\n      swap3\n      swap2\n      pop\n      pop\n      jump\t// out\n        /* \"#utility.yul\":4740:4905   */\n    tag_86:\n        /* \"#utility.yul\":4880:4897   */\n      0x5472616e73666572206661696c65640000000000000000000000000000000000\n        /* \"#utility.yul\":4876:4877   */\n      0x00\n        /* \"#utility.yul\":4868:4874   */\n      dup3\n        /* \"#utility.yul\":4864:4878   */\n      add\n        /* \"#utility.yul\":4857:4898   */\n      mstore\n        /* \"#utility.yul\":4740:4905   */\n      pop\n      jump\t// out\n        /* \"#utility.yul\":4911:5277   */\n    tag_87:\n        /* \"#utility.yul\":5053:5056   */\n      0x00\n        /* \"#utility.yul\":5074:5141   */\n      tag_148\n        /* \"#utility.yul\":5138:5140   */\n      0x0f\n        /* \"#utility.yul\":5133:5136   */\n      dup4\n        /* \"#utility.yul\":5074:5141   */\n      tag_85\n      jump\t// in\n    tag_148:\n        /* \"#utility.yul\":5067:5141   */\n      swap2\n      pop\n        /* \"#utility.yul\":5150:5243   */\n      tag_149\n        /* \"#utility.yul\":5239:5242   */\n      dup3\n        /* \"#utility.yul\":5150:5243   */\n      tag_86\n      jump\t// in\n    tag_149:\n        /* \"#utility.yul\":5268:5270   */\n      0x20\n        /* \"#utility.yul\":5263:5266   */\n      dup3\n        /* \"#utility.yul\":5259:5271   */\n      add\n        /* \"#utility.yul\":5252:5271   */\n      swap1\n      pop\n        /* \"#utility.yul\":4911:5277   */\n      swap2\n      swap1\n      pop\n      jump\t// out\n        /* \"#utility.yul\":5283:5702   */\n    tag_68:\n        /* \"#utility.yul\":5449:5453   */\n      0x00\n        /* \"#utility.yul\":5487:5489   */\n      0x20\n        /* \"#utility.yul\":5476:5485   */\n      dup3\n        /* \"#utility.yul\":5472:5490   */\n      add\n        /* \"#utility.yul\":5464:5490   */\n      swap1\n      pop\n        /* \"#utility.yul\":5536:5545   */\n      dup2\n        /* \"#utility.yul\":5530:5534   */\n      dup2\n        /* \"#utility.yul\":5526:5546   */\n      sub\n        /* \"#utility.yul\":5522:5523   */\n      0x00\n        /* \"#utility.yul\":5511:5520   */\n      dup4\n        /* \"#utility.yul\":5507:5524   */\n      add\n        /* \"#utility.yul\":5500:5547   */\n      mstore\n        /* \"#utility.yul\":5564:5695   */\n      tag_151\n        /* \"#utility.yul\":5690:5694   */\n      dup2\n        /* \"#utility.yul\":5564:5695   */\n      tag_87\n      jump\t// in\n    tag_151:\n        /* \"#utility.yul\":5556:5695   */\n      swap1\n      pop\n        /* \"#utility.yul\":5283:5702   */\n      swap2\n      swap1\n      pop\n      jump\t// out\n\n    auxdata: 0xa26469706673582212208608888bf7c92908ef5361db08f8c20808697e26ad1c01d8c3045523829ca85b64736f6c634300081e0033\n}\n",
				"bytecode": {
					"linkReferences": {},
					"object": "60a06040526040516109473803806109478339818101604052810190602391906062565b8060808181525050506088565b5f5ffd5b5f819050919050565b6044816034565b8114604d575f5ffd5b50565b5f81519050605c81603d565b92915050565b5f6020828403121560745760736030565b5b5f607f848285016050565b91505092915050565b6080516108a06100a75f395f81816101d101526104c301526108a05ff3fe60806040526004361061006f575f3560e01c80639ed9c26d1161004d5780639ed9c26d146100e3578063a472b2d91461010d578063e8b1298f14610137578063ecbea24d1461015f5761006f565b80632640e736146100735780633d922f901461009d57806370a08231146100a7575b5f5ffd5b34801561007e575f5ffd5b50610087610189565b60405161009491906105aa565b60405180910390f35b6100a5610196565b005b3480156100b2575f5ffd5b506100cd60048036038101906100c89190610621565b6102cd565b6040516100da91906105aa565b60405180910390f35b3480156100ee575f5ffd5b506100f7610313565b60405161010491906105aa565b60405180910390f35b348015610118575f5ffd5b50610121610319565b60405161012e91906105aa565b60405180910390f35b348015610142575f5ffd5b5061015d60048036038101906101589190610676565b61031e565b005b34801561016a575f5ffd5b506101736104c1565b60405161018091906105aa565b60405180910390f35b6802b5e3af16b188000081565b5f34036101cf576040517ffe9ba5cd00000000000000000000000000000000000000000000000000000000815260040160405180910390fd5b7f0000000000000000000000000000000000000000000000000000000000000000471115610229576040517f4b9f2b5400000000000000000000000000000000000000000000000000000000815260040160405180910390fd5b3460025f3373ffffffffffffffffffffffffffffffffffffffff1673ffffffffffffffffffffffffffffffffffffffff1681526020019081526020015f205f82825461027591906106ce565b925050819055505f5f81548092919061028d90610701565b91905055507f453529dac6ef979a41d67fbeeabdfae29903c185f64d77aa690df9eca5f1aa6033346040516102c3929190610757565b60405180910390a1565b5f60025f8373ffffffffffffffffffffffffffffffffffffffff1673ffffffffffffffffffffffffffffffffffffffff1681526020019081526020015f20549050919050565b60015481565b5f5481565b5f8103610357576040517fdb73cdf000000000000000000000000000000000000000000000000000000000815260040160405180910390fd5b6802b5e3af16b188000081111561039a576040517f14f310c900000000000000000000000000000000000000000000000000000000815260040160405180910390fd5b8060025f3373ffffffffffffffffffffffffffffffffffffffff1673ffffffffffffffffffffffffffffffffffffffff1681526020019081526020015f20541015610411576040517ff4d678b800000000000000000000000000000000000000000000000000000000815260040160405180910390fd5b8060025f3373ffffffffffffffffffffffffffffffffffffffff1673ffffffffffffffffffffffffffffffffffffffff1681526020019081526020015f205f82825461045d919061077e565b9250508190555060015f81548092919061047690610701565b919050555061048533826104e5565b7febdddb82f24ed849145a8f144818f7d383a31047a4a7f30b928c65100f9b8eab33826040516104b6929190610757565b60405180910390a150565b7f000000000000000000000000000000000000000000000000000000000000000081565b5f8273ffffffffffffffffffffffffffffffffffffffff168260405161050a906107de565b5f6040518083038185875af1925050503d805f8114610544576040519150601f19603f3d011682016040523d82523d5f602084013e610549565b606091505b505090508061058d576040517f08c379a00000000000000000000000000000000000000000000000000000000081526004016105849061084c565b60405180910390fd5b505050565b5f819050919050565b6105a481610592565b82525050565b5f6020820190506105bd5f83018461059b565b92915050565b5f5ffd5b5f73ffffffffffffffffffffffffffffffffffffffff82169050919050565b5f6105f0826105c7565b9050919050565b610600816105e6565b811461060a575f5ffd5b50565b5f8135905061061b816105f7565b92915050565b5f60208284031215610636576106356105c3565b5b5f6106438482850161060d565b91505092915050565b61065581610592565b811461065f575f5ffd5b50565b5f813590506106708161064c565b92915050565b5f6020828403121561068b5761068a6105c3565b5b5f61069884828501610662565b91505092915050565b7f4e487b71000000000000000000000000000000000000000000000000000000005f52601160045260245ffd5b5f6106d882610592565b91506106e383610592565b92508282019050808211156106fb576106fa6106a1565b5b92915050565b5f61070b82610592565b91507fffffffffffffffffffffffffffffffffffffffffffffffffffffffffffffffff820361073d5761073c6106a1565b5b600182019050919050565b610751816105e6565b82525050565b5f60408201905061076a5f830185610748565b610777602083018461059b565b9392505050565b5f61078882610592565b915061079383610592565b92508282039050818111156107ab576107aa6106a1565b5b92915050565b5f81905092915050565b50565b5f6107c95f836107b1565b91506107d4826107bb565b5f82019050919050565b5f6107e8826107be565b9150819050919050565b5f82825260208201905092915050565b7f5472616e73666572206661696c656400000000000000000000000000000000005f82015250565b5f610836600f836107f2565b915061084182610802565b602082019050919050565b5f6020820190508181035f8301526108638161082a565b905091905056fea26469706673582212208608888bf7c92908ef5361db08f8c20808697e26ad1c01d8c3045523829ca85b64736f6c634300081e0033",
					"opcodes": "PUSH1 0xA0 PUSH1 0x40 MSTORE PUSH1 0x40 MLOAD PUSH2 0x947 CODESIZE SUB DUP1 PUSH2 0x947 DUP4 CODECOPY DUP2 DUP2 ADD PUSH1 0x40 MSTORE DUP2 ADD SWAP1 PUSH1 0x23 SWAP2 SWAP1 PUSH1 0x62 JUMP JUMPDEST DUP1 PUSH1 0x80 DUP2 DUP2 MSTORE POP POP POP PUSH1 0x88 JUMP JUMPDEST PUSH0 PUSH0 REVERT JUMPDEST PUSH0 DUP2 SWAP1 POP SWAP2 SWAP1 POP JUMP JUMPDEST PUSH1 0x44 DUP2 PUSH1 0x34 JUMP JUMPDEST DUP2 EQ PUSH1 0x4D JUMPI PUSH0 PUSH0 REVERT JUMPDEST POP JUMP JUMPDEST PUSH0 DUP2 MLOAD SWAP1 POP PUSH1 0x5C DUP2 PUSH1 0x3D JUMP JUMPDEST SWAP3 SWAP2 POP POP JUMP JUMPDEST PUSH0 PUSH1 0x20 DUP3 DUP5 SUB SLT ISZERO PUSH1 0x74 JUMPI PUSH1 0x73 PUSH1 0x30 JUMP JUMPDEST JUMPDEST PUSH0 PUSH1 0x7F DUP5 DUP3 DUP6 ADD PUSH1 0x50 JUMP JUMPDEST SWAP2 POP POP SWAP3 SWAP2 POP POP JUMP JUMPDEST PUSH1 0x80 MLOAD PUSH2 0x8A0 PUSH2 0xA7 PUSH0 CODECOPY PUSH0 DUP2 DUP2 PUSH2 0x1D1 ADD MSTORE PUSH2 0x4C3 ADD MSTORE PUSH2 0x8A0 PUSH0 RETURN INVALID PUSH1 0x80 PUSH1 0x40 MSTORE PUSH1 0x4 CALLDATASIZE LT PUSH2 0x6F JUMPI PUSH0 CALLDATALOAD PUSH1 0xE0 SHR DUP1 PUSH4 0x9ED9C26D GT PUSH2 0x4D JUMPI DUP1 PUSH4 0x9ED9C26D EQ PUSH2 0xE3 JUMPI DUP1 PUSH4 0xA472B2D9 EQ PUSH2 0x10D JUMPI DUP1 PUSH4 0xE8B1298F EQ PUSH2 0x137 JUMPI DUP1 PUSH4 0xECBEA24D EQ PUSH2 0x15F JUMPI PUSH2 0x6F JUMP JUMPDEST DUP1 PUSH4 0x2640E736 EQ PUSH2 0x73 JUMPI DUP1 PUSH4 0x3D922F90 EQ PUSH2 0x9D JUMPI DUP1 PUSH4 0x70A08231 EQ PUSH2 0xA7 JUMPI JUMPDEST PUSH0 PUSH0 REVERT JUMPDEST CALLVALUE DUP1 ISZERO PUSH2 0x7E JUMPI PUSH0 PUSH0 REVERT JUMPDEST POP PUSH2 0x87 PUSH2 0x189 JUMP JUMPDEST PUSH1 0x40 MLOAD PUSH2 0x94 SWAP2 SWAP1 PUSH2 0x5AA JUMP JUMPDEST PUSH1 0x40 MLOAD DUP1 SWAP2 SUB SWAP1 RETURN JUMPDEST PUSH2 0xA5 PUSH2 0x196 JUMP JUMPDEST STOP JUMPDEST CALLVALUE DUP1 ISZERO PUSH2 0xB2 JUMPI PUSH0 PUSH0 REVERT JUMPDEST POP PUSH2 0xCD PUSH1 0x4 DUP1 CALLDATASIZE SUB DUP2 ADD SWAP1 PUSH2 0xC8 SWAP2 SWAP1 PUSH2 0x621 JUMP JUMPDEST PUSH2 0x2CD JUMP JUMPDEST PUSH1 0x40 MLOAD PUSH2 0xDA SWAP2 SWAP1 PUSH2 0x5AA JUMP JUMPDEST PUSH1 0x40 MLOAD DUP1 SWAP2 SUB SWAP1 RETURN JUMPDEST CALLVALUE DUP1 ISZERO PUSH2 0xEE JUMPI PUSH0 PUSH0 REVERT JUMPDEST POP PUSH2 0xF7 PUSH2 0x313 JUMP JUMPDEST PUSH1 0x40 MLOAD PUSH2 0x104 SWAP2 SWAP1 PUSH2 0x5AA JUMP JUMPDEST PUSH1 0x40 MLOAD DUP1 SWAP2 SUB SWAP1 RETURN JUMPDEST CALLVALUE DUP1 ISZERO PUSH2 0x118 JUMPI PUSH0 PUSH0 REVERT JUMPDEST POP PUSH2 0x121 PUSH2 0x319 JUMP JUMPDEST PUSH1 0x40 MLOAD PUSH2 0x12E SWAP2 SWAP1 PUSH2 0x5AA JUMP JUMPDEST PUSH1 0x40 MLOAD DUP1 SWAP2 SUB SWAP1 RETURN JUMPDEST CALLVALUE DUP1 ISZERO PUSH2 0x142 JUMPI PUSH0 PUSH0 REVERT JUMPDEST POP PUSH2 0x15D PUSH1 0x4 DUP1 CALLDATASIZE SUB DUP2 ADD SWAP1 PUSH2 0x158 SWAP2 SWAP1 PUSH2 0x676 JUMP JUMPDEST PUSH2 0x31E JUMP JUMPDEST STOP JUMPDEST CALLVALUE DUP1 ISZERO PUSH2 0x16A JUMPI PUSH0 PUSH0 REVERT JUMPDEST POP PUSH2 0x173 PUSH2 0x4C1 JUMP JUMPDEST PUSH1 0x40 MLOAD PUSH2 0x180 SWAP2 SWAP1 PUSH2 0x5AA JUMP JUMPDEST PUSH1 0x40 MLOAD DUP1 SWAP2 SUB SWAP1 RETURN JUMPDEST PUSH9 0x2B5E3AF16B1880000 DUP2 JUMP JUMPDEST PUSH0 CALLVALUE SUB PUSH2 0x1CF JUMPI PUSH1 0x40 MLOAD PUSH32 0xFE9BA5CD00000000000000000000000000000000000000000000000000000000 DUP2 MSTORE PUSH1 0x4 ADD PUSH1 0x40 MLOAD DUP1 SWAP2 SUB SWAP1 REVERT JUMPDEST PUSH32 0x0 SELFBALANCE GT ISZERO PUSH2 0x229 JUMPI PUSH1 0x40 MLOAD PUSH32 0x4B9F2B5400000000000000000000000000000000000000000000000000000000 DUP2 MSTORE PUSH1 0x4 ADD PUSH1 0x40 MLOAD DUP1 SWAP2 SUB SWAP1 REVERT JUMPDEST CALLVALUE PUSH1 0x2 PUSH0 CALLER PUSH20 0xFFFFFFFFFFFFFFFFFFFFFFFFFFFFFFFFFFFFFFFF AND PUSH20 0xFFFFFFFFFFFFFFFFFFFFFFFFFFFFFFFFFFFFFFFF AND DUP2 MSTORE PUSH1 0x20 ADD SWAP1 DUP2 MSTORE PUSH1 0x20 ADD PUSH0 KECCAK256 PUSH0 DUP3 DUP3 SLOAD PUSH2 0x275 SWAP2 SWAP1 PUSH2 0x6CE JUMP JUMPDEST SWAP3 POP POP DUP2 SWAP1 SSTORE POP PUSH0 PUSH0 DUP2 SLOAD DUP1 SWAP3 SWAP2 SWAP1 PUSH2 0x28D SWAP1 PUSH2 0x701 JUMP JUMPDEST SWAP2 SWAP1 POP SSTORE POP PUSH32 0x453529DAC6EF979A41D67FBEEABDFAE29903C185F64D77AA690DF9ECA5F1AA60 CALLER CALLVALUE PUSH1 0x40 MLOAD PUSH2 0x2C3 SWAP3 SWAP2 SWAP1 PUSH2 0x757 JUMP JUMPDEST PUSH1 0x40 MLOAD DUP1 SWAP2 SUB SWAP1 LOG1 JUMP JUMPDEST PUSH0 PUSH1 0x2 PUSH0 DUP4 PUSH20 0xFFFFFFFFFFFFFFFFFFFFFFFFFFFFFFFFFFFFFFFF AND PUSH20 0xFFFFFFFFFFFFFFFFFFFFFFFFFFFFFFFFFFFFFFFF AND DUP2 MSTORE PUSH1 0x20 ADD SWAP1 DUP2 MSTORE PUSH1 0x20 ADD PUSH0 KECCAK256 SLOAD SWAP1 POP SWAP2 SWAP1 POP JUMP JUMPDEST PUSH1 0x1 SLOAD DUP2 JUMP JUMPDEST PUSH0 SLOAD DUP2 JUMP JUMPDEST PUSH0 DUP2 SUB PUSH2 0x357 JUMPI PUSH1 0x40 MLOAD PUSH32 0xDB73CDF000000000000000000000000000000000000000000000000000000000 DUP2 MSTORE PUSH1 0x4 ADD PUSH1 0x40 MLOAD DUP1 SWAP2 SUB SWAP1 REVERT JUMPDEST PUSH9 0x2B5E3AF16B1880000 DUP2 GT ISZERO PUSH2 0x39A JUMPI PUSH1 0x40 MLOAD PUSH32 0x14F310C900000000000000000000000000000000000000000000000000000000 DUP2 MSTORE PUSH1 0x4 ADD PUSH1 0x40 MLOAD DUP1 SWAP2 SUB SWAP1 REVERT JUMPDEST DUP1 PUSH1 0x2 PUSH0 CALLER PUSH20 0xFFFFFFFFFFFFFFFFFFFFFFFFFFFFFFFFFFFFFFFF AND PUSH20 0xFFFFFFFFFFFFFFFFFFFFFFFFFFFFFFFFFFFFFFFF AND DUP2 MSTORE PUSH1 0x20 ADD SWAP1 DUP2 MSTORE PUSH1 0x20 ADD PUSH0 KECCAK256 SLOAD LT ISZERO PUSH2 0x411 JUMPI PUSH1 0x40 MLOAD PUSH32 0xF4D678B800000000000000000000000000000000000000000000000000000000 DUP2 MSTORE PUSH1 0x4 ADD PUSH1 0x40 MLOAD DUP1 SWAP2 SUB SWAP1 REVERT JUMPDEST DUP1 PUSH1 0x2 PUSH0 CALLER PUSH20 0xFFFFFFFFFFFFFFFFFFFFFFFFFFFFFFFFFFFFFFFF AND PUSH20 0xFFFFFFFFFFFFFFFFFFFFFFFFFFFFFFFFFFFFFFFF AND DUP2 MSTORE PUSH1 0x20 ADD SWAP1 DUP2 MSTORE PUSH1 0x20 ADD PUSH0 KECCAK256 PUSH0 DUP3 DUP3 SLOAD PUSH2 0x45D SWAP2 SWAP1 PUSH2 0x77E JUMP JUMPDEST SWAP3 POP POP DUP2 SWAP1 SSTORE POP PUSH1 0x1 PUSH0 DUP2 SLOAD DUP1 SWAP3 SWAP2 SWAP1 PUSH2 0x476 SWAP1 PUSH2 0x701 JUMP JUMPDEST SWAP2 SWAP1 POP SSTORE POP PUSH2 0x485 CALLER DUP3 PUSH2 0x4E5 JUMP JUMPDEST PUSH32 0xEBDDDB82F24ED849145A8F144818F7D383A31047A4A7F30B928C65100F9B8EAB CALLER DUP3 PUSH1 0x40 MLOAD PUSH2 0x4B6 SWAP3 SWAP2 SWAP1 PUSH2 0x757 JUMP JUMPDEST PUSH1 0x40 MLOAD DUP1 SWAP2 SUB SWAP1 LOG1 POP JUMP JUMPDEST PUSH32 0x0 DUP2 JUMP JUMPDEST PUSH0 DUP3 PUSH20 0xFFFFFFFFFFFFFFFFFFFFFFFFFFFFFFFFFFFFFFFF AND DUP3 PUSH1 0x40 MLOAD PUSH2 0x50A SWAP1 PUSH2 0x7DE JUMP JUMPDEST PUSH0 PUSH1 0x40 MLOAD DUP1 DUP4 SUB DUP2 DUP6 DUP8 GAS CALL SWAP3 POP POP POP RETURNDATASIZE DUP1 PUSH0 DUP2 EQ PUSH2 0x544 JUMPI PUSH1 0x40 MLOAD SWAP2 POP PUSH1 0x1F NOT PUSH1 0x3F RETURNDATASIZE ADD AND DUP3 ADD PUSH1 0x40 MSTORE RETURNDATASIZE DUP3 MSTORE RETURNDATASIZE PUSH0 PUSH1 0x20 DUP5 ADD RETURNDATACOPY PUSH2 0x549 JUMP JUMPDEST PUSH1 0x60 SWAP2 POP JUMPDEST POP POP SWAP1 POP DUP1 PUSH2 0x58D JUMPI PUSH1 0x40 MLOAD PUSH32 0x8C379A000000000000000000000000000000000000000000000000000000000 DUP2 MSTORE PUSH1 0x4 ADD PUSH2 0x584 SWAP1 PUSH2 0x84C JUMP JUMPDEST PUSH1 0x40 MLOAD DUP1 SWAP2 SUB SWAP1 REVERT JUMPDEST POP POP POP JUMP JUMPDEST PUSH0 DUP2 SWAP1 POP SWAP2 SWAP1 POP JUMP JUMPDEST PUSH2 0x5A4 DUP2 PUSH2 0x592 JUMP JUMPDEST DUP3 MSTORE POP POP JUMP JUMPDEST PUSH0 PUSH1 0x20 DUP3 ADD SWAP1 POP PUSH2 0x5BD PUSH0 DUP4 ADD DUP5 PUSH2 0x59B JUMP JUMPDEST SWAP3 SWAP2 POP POP JUMP JUMPDEST PUSH0 PUSH0 REVERT JUMPDEST PUSH0 PUSH20 0xFFFFFFFFFFFFFFFFFFFFFFFFFFFFFFFFFFFFFFFF DUP3 AND SWAP1 POP SWAP2 SWAP1 POP JUMP JUMPDEST PUSH0 PUSH2 0x5F0 DUP3 PUSH2 0x5C7 JUMP JUMPDEST SWAP1 POP SWAP2 SWAP1 POP JUMP JUMPDEST PUSH2 0x600 DUP2 PUSH2 0x5E6 JUMP JUMPDEST DUP2 EQ PUSH2 0x60A JUMPI PUSH0 PUSH0 REVERT JUMPDEST POP JUMP JUMPDEST PUSH0 DUP2 CALLDATALOAD SWAP1 POP PUSH2 0x61B DUP2 PUSH2 0x5F7 JUMP JUMPDEST SWAP3 SWAP2 POP POP JUMP JUMPDEST PUSH0 PUSH1 0x20 DUP3 DUP5 SUB SLT ISZERO PUSH2 0x636 JUMPI PUSH2 0x635 PUSH2 0x5C3 JUMP JUMPDEST JUMPDEST PUSH0 PUSH2 0x643 DUP5 DUP3 DUP6 ADD PUSH2 0x60D JUMP JUMPDEST SWAP2 POP POP SWAP3 SWAP2 POP POP JUMP JUMPDEST PUSH2 0x655 DUP2 PUSH2 0x592 JUMP JUMPDEST DUP2 EQ PUSH2 0x65F JUMPI PUSH0 PUSH0 REVERT JUMPDEST POP JUMP JUMPDEST PUSH0 DUP2 CALLDATALOAD SWAP1 POP PUSH2 0x670 DUP2 PUSH2 0x64C JUMP JUMPDEST SWAP3 SWAP2 POP POP JUMP JUMPDEST PUSH0 PUSH1 0x20 DUP3 DUP5 SUB SLT ISZERO PUSH2 0x68B JUMPI PUSH2 0x68A PUSH2 0x5C3 JUMP JUMPDEST JUMPDEST PUSH0 PUSH2 0x698 DUP5 DUP3 DUP6 ADD PUSH2 0x662 JUMP JUMPDEST SWAP2 POP POP SWAP3 SWAP2 POP POP JUMP JUMPDEST PUSH32 0x4E487B7100000000000000000000000000000000000000000000000000000000 PUSH0 MSTORE PUSH1 0x11 PUSH1 0x4 MSTORE PUSH1 0x24 PUSH0 REVERT JUMPDEST PUSH0 PUSH2 0x6D8 DUP3 PUSH2 0x592 JUMP JUMPDEST SWAP2 POP PUSH2 0x6E3 DUP4 PUSH2 0x592 JUMP JUMPDEST SWAP3 POP DUP3 DUP3 ADD SWAP1 POP DUP1 DUP3 GT ISZERO PUSH2 0x6FB JUMPI PUSH2 0x6FA PUSH2 0x6A1 JUMP JUMPDEST JUMPDEST SWAP3 SWAP2 POP POP JUMP JUMPDEST PUSH0 PUSH2 0x70B DUP3 PUSH2 0x592 JUMP JUMPDEST SWAP2 POP PUSH32 0xFFFFFFFFFFFFFFFFFFFFFFFFFFFFFFFFFFFFFFFFFFFFFFFFFFFFFFFFFFFFFFFF DUP3 SUB PUSH2 0x73D JUMPI PUSH2 0x73C PUSH2 0x6A1 JUMP JUMPDEST JUMPDEST PUSH1 0x1 DUP3 ADD SWAP1 POP SWAP2 SWAP1 POP JUMP JUMPDEST PUSH2 0x751 DUP2 PUSH2 0x5E6 JUMP JUMPDEST DUP3 MSTORE POP POP JUMP JUMPDEST PUSH0 PUSH1 0x40 DUP3 ADD SWAP1 POP PUSH2 0x76A PUSH0 DUP4 ADD DUP6 PUSH2 0x748 JUMP JUMPDEST PUSH2 0x777 PUSH1 0x20 DUP4 ADD DUP5 PUSH2 0x59B JUMP JUMPDEST SWAP4 SWAP3 POP POP POP JUMP JUMPDEST PUSH0 PUSH2 0x788 DUP3 PUSH2 0x592 JUMP JUMPDEST SWAP2 POP PUSH2 0x793 DUP4 PUSH2 0x592 JUMP JUMPDEST SWAP3 POP DUP3 DUP3 SUB SWAP1 POP DUP2 DUP2 GT ISZERO PUSH2 0x7AB JUMPI PUSH2 0x7AA PUSH2 0x6A1 JUMP JUMPDEST JUMPDEST SWAP3 SWAP2 POP POP JUMP JUMPDEST PUSH0 DUP2 SWAP1 POP SWAP3 SWAP2 POP POP JUMP JUMPDEST POP JUMP JUMPDEST PUSH0 PUSH2 0x7C9 PUSH0 DUP4 PUSH2 0x7B1 JUMP JUMPDEST SWAP2 POP PUSH2 0x7D4 DUP3 PUSH2 0x7BB JUMP JUMPDEST PUSH0 DUP3 ADD SWAP1 POP SWAP2 SWAP1 POP JUMP JUMPDEST PUSH0 PUSH2 0x7E8 DUP3 PUSH2 0x7BE JUMP JUMPDEST SWAP2 POP DUP2 SWAP1 POP SWAP2 SWAP1 POP JUMP JUMPDEST PUSH0 DUP3 DUP3 MSTORE PUSH1 0x20 DUP3 ADD SWAP1 POP SWAP3 SWAP2 POP POP JUMP JUMPDEST PUSH32 0x5472616E73666572206661696C65640000000000000000000000000000000000 PUSH0 DUP3 ADD MSTORE POP JUMP JUMPDEST PUSH0 PUSH2 0x836 PUSH1 0xF DUP4 PUSH2 0x7F2 JUMP JUMPDEST SWAP2 POP PUSH2 0x841 DUP3 PUSH2 0x802 JUMP JUMPDEST PUSH1 0x20 DUP3 ADD SWAP1 POP SWAP2 SWAP1 POP JUMP JUMPDEST PUSH0 PUSH1 0x20 DUP3 ADD SWAP1 POP DUP2 DUP2 SUB PUSH0 DUP4 ADD MSTORE PUSH2 0x863 DUP2 PUSH2 0x82A JUMP JUMPDEST SWAP1 POP SWAP2 SWAP1 POP JUMP INVALID LOG2 PUSH5 0x6970667358 0x22 SLT KECCAK256 DUP7 ADDMOD DUP9 DUP12 0xF7 0xC9 0x29 ADDMOD 0xEF MSTORE8 PUSH2 0xDB08 EXTCALL 0xC2 ADDMOD ADDMOD PUSH10 0x7E26AD1C01D8C3045523 DUP3 SWAP13 0xA8 JUMPDEST PUSH5 0x736F6C6343 STOP ADDMOD 0x1E STOP CALLER "
				},
				"gasEstimates": {
					"creation": {
						"codeDepositCost": "441600",
						"executionCost": "infinite",
						"totalCost": "infinite"
					},
					"external": {
						"LIMITE_RETIRO()": "326",
						"balanceOf(address)": "2874",
						"bankCap()": "infinite",
						"depositar()": "infinite",
						"retirar(uint256)": "infinite",
						"totalDepositos()": "2446",
						"totalRetiros()": "2425"
					},
					"internal": {
						"_safeTransfer(address payable,uint256)": "infinite"
					}
				},
				"methodIdentifiers": {
					"LIMITE_RETIRO()": "2640e736",
					"balanceOf(address)": "70a08231",
					"bankCap()": "ecbea24d",
					"depositar()": "3d922f90",
					"retirar(uint256)": "e8b1298f",
					"totalDepositos()": "a472b2d9",
					"totalRetiros()": "9ed9c26d"
				}
			},
			"storageLayout": {
				"storage": [
					{
						"astId": 26,
						"contract": "contracts/KipuBank.sol:KipuBank",
						"label": "totalDepositos",
						"offset": 0,
						"slot": "0",
						"type": "t_uint256"
					},
					{
						"astId": 29,
						"contract": "contracts/KipuBank.sol:KipuBank",
						"label": "totalRetiros",
						"offset": 0,
						"slot": "1",
						"type": "t_uint256"
					},
					{
						"astId": 34,
						"contract": "contracts/KipuBank.sol:KipuBank",
						"label": "balances",
						"offset": 0,
						"slot": "2",
						"type": "t_mapping(t_address,t_uint256)"
					}
				],
				"types": {
					"t_address": {
						"encoding": "inplace",
						"label": "address",
						"numberOfBytes": "20"
					},
					"t_mapping(t_address,t_uint256)": {
						"encoding": "mapping",
						"key": "t_address",
						"label": "mapping(address => uint256)",
						"numberOfBytes": "32",
						"value": "t_uint256"
					},
					"t_uint256": {
						"encoding": "inplace",
						"label": "uint256",
						"numberOfBytes": "32"
					}
				}
			},
			"userdoc": {
				"errors": {
					"DepositCapReached()": [
						{
							"notice": "Lanzado cuando se excede el límite global de depósitos"
						}
					],
					"InsufficientBalance()": [
						{
							"notice": "Lanzado cuando el usuario no tiene saldo suficiente"
						}
					],
					"InvalidDepositAmount()": [
						{
							"notice": "Lanzado cuando el monto de depósito es inválido"
						}
					],
					"InvalidWithdrawAmount()": [
						{
							"notice": "Lanzado cuando el monto de retiro es inválido"
						}
					],
					"WithdrawLimitExceeded()": [
						{
							"notice": "Lanzado cuando el monto de retiro excede el límite permitido por transacción"
						}
					]
				},
				"events": {
					"Deposito(address,uint256)": {
						"notice": "Emitido cuando un usuario deposita ETH"
					},
					"Retiro(address,uint256)": {
						"notice": "Emitido cuando un usuario retira ETH"
					}
				},
				"kind": "user",
				"methods": {
					"LIMITE_RETIRO()": {
						"notice": "Límite máximo de retiro por transacción"
					},
					"balanceOf(address)": {
						"notice": "Devuelve el balance de un usuario"
					},
					"bankCap()": {
						"notice": "Límite global de depósitos permitido"
					},
					"depositar()": {
						"notice": "Deposita ETH en el contrato"
					},
					"retirar(uint256)": {
						"notice": "Retira un monto de ETH del balance del usuario"
					},
					"totalDepositos()": {
						"notice": "Conteo de depósitos realizados"
					},
					"totalRetiros()": {
						"notice": "Conteo de retiros realizados"
					}
				},
				"version": 1
			}
		}
	}
}